:020000040800F2
:1000000000C0002051480008354800083748000863
:10001000394800083B4800083D480008000000003F
:100020000000000000000000000000003F48000841
:100030004148000800000000434800084548000807
:10004000994800089948000899480008994800080C
:1000500099480008994800089948000899480008FC
:10006000994800089948000899480008E9410008A3
:1000700099480008994800089948000899480008DC
:1000800099480008994800089948000899480008CC
:1000900099480008994800089948000899480008BC
:1000A00099480008994800089948000899480008AC
:1000B000994800089948000899480008994800089C
:1000C000994800089948000899480008994800088C
:1000D000994800089948000899480008994800087C
:1000E000994800089948000899480008994800086C
:1000F000994800089948000899480008994800085C
:10010000994800089948000899480008994800084B
:10011000994800089948000899480008994800083B
:10012000994800089948000899480008994800082B
:1001300000000000000000000000000000000000BF
:1001400000000000000000000000000000000000AF
:10015000000000000000000000000000000000009F
:10016000000000000000000000000000000000008F
:10017000000000000000000000000000000000007F
:10018000000000000000000000000000000000006F
:10019000000000000000000000000000000000005F
:1001A000000000000000000000000000000000004F
:1001B000000000000000000000000000000000003F
:1001C000000000000000000000000000000000002F
:1001D000000000000000000000000000000000001F
:0401E0005FF8E0F1F3
:1001E8000348044B834202D0034B03B118477047BE
:1001F8008C0000208C000020000000000548064B01
:100208001B1AD90F01EBA301491002D0034B03B10C
:10021800184770478C0000208C0000200000000068
:1002280010B5064C237843B9FFF7DAFF044B13B136
:100238000448AFF300800123237010BD8C00002018
:10024800000000009C48000808B5044B1BB1044995
:100258000448AFF30080BDE80840CFE70000000085
:10026800900000209C48000870B50D4E0D4D761B7F
:10027800B61006D0002455F8043B01349847A6422E
:10028800F9D1094E094D04F005FB761BB61006D0CE
:10029800002455F8043B01349847A642F9D170BDB3
:1002A80050490008504900085449000850490008BE
:1002B800830730B548D0541E002A3FD00346CAB23F
:1002C80001E0013C3AD303F8012B9D07F9D1032C37
:1002D8002DD9CDB245EA05250F2C45EA054536D975
:1002E800A4F1100222F00F0C03F1200EE6444FEAAD
:1002F800121C03F1100242E9045542E9025510327A
:100308007245F8D10CF1010214F00C0F03EB021244
:1003180004F00F0C13D0ACF1040323F003030433EF
:10032800134442F8045B9342FBD10CF003042CB154
:10033800CAB21C4403F8012B9C42FBD130BD644671
:100348001346002CF4D1F9E703461446BFE71A46D2
:10035800A446E0E70CB430B50C466FF000459DB0FC
:100368000A4A20AB059253F8042B02A9CDE90134BF
:1003780007950495069400F03BF90022029B1A7039
:100388001DB0BDE8304002B0704700BF0802FFFF53
:100398000EB430B504466FF000459CB00B4A1FAB55
:1003A8000B49059253F8042B086802A9CDE90134DA
:1003B80007950495069400F01BF90022029B1A7019
:1003C8001CB0BDE8304003B0704700BF0802FFFF13
:1003D8000000002020F0030110F00300C0F100002D
:1003E80051F8043B00F1040C4FEACC0C6FF000020A
:1003F8001CBF22FA0CF213434FF0010C4CEA0C2CF0
:100408004CEA0C4CA3EB0C0222EA030212EACC12CF
:1004180004BF51F8043B0430F4D0C2F1000102EAF1
:100428000102B2FA82F2C2F11F0200EBD200704759
:100438002DE9F0478F680C469F421D46164638D86E
:100448008246888910F4906F0ED13D4608682A4686
:10045800314600F091FC0020A2682368D21B2B448F
:10046800A2602360BDE8F0874B69096903EB430884
:10047800236808EBD878A3EB01096B1C4FEA6808DE
:100488004B444345424684BF98464246430513D5EC
:100498001146504600F052FD074608B34A46216906
:1004A80000F0F4FBA38923F4906343F08003A38155
:1004B80007E01F460868CAE7504600F09BFD07465C
:1004C80050B107EB0900A8EB09032761C4F81480B1
:1004D8002F46A3602060BAE75046216900F0C8FCA7
:1004E8000C23CAF80030A3894FF0FF3043F04003D3
:1004F800A381B7E72DE9F04F9368914683B0002BAD
:100508006ED0176880460C4608688D68083744E046
:10051800B4F80CC01CF4906F2ED0D4E90413451A1B
:1005280003EB430303EBD373AA194FEA630A531C83
:100538005345524684BF9A4652461CF4806F36D0C3
:100548001146404600F0FAFC00283AD02A462169B4
:10055800019000F09BFBA289019B22F4906242F07B
:100568008002A2815819AAEB0505A560C4F814A059
:100578003546B246236120605946524600F0FCFBDE
:10058800D9F80830A16820684D1B50449E1BA5600F
:100598002060C9F808601EB3083757E902B6002E74
:1005A800FAD0B542AA46B3D93546B246E4E7404642
:1005B80000F020FD03460028D4D14046216900F010
:1005C80057FC0C2300224FF0FF30C8F80030A389F5
:1005D80043F04003A381C9E9012203B0BDE8F08FCD
:1005E80000231846C9F8043003B0BDE8F08F00BFF7
:1005F8002DE9F04F1C468B890F461D068046924612
:100608009DB003D50B69002B00F0F38000230993FC
:10061800302320228DF82A309AF8003003940125DF
:100628007B4C8DF82920002B76D0D14603E019F8B1
:10063800013F002B79D0252BF9D1B9EB0A0B77D1E3
:1006480099F80020002A67D000234FF0FF3209F103
:100658000109CDE90523049307938DF853301A93C4
:1006680004E0001B05FA00F018430490CA4605226E
:10067800204619F8011B00F0C1FA049B0028F0D1AC
:10068800D80644BF20228DF85320190748BF2B22D3
:100698009AF8001048BF8DF853202A2956D1039A9A
:1006A80011680432002903927EDB07919AF8011041
:1006B8000AF1010A2E295BD0DFF858910322484637
:1006C80000F09CFA48B14022049BA0EB090002FA12
:1006D80000F003430AF1010A04931AF8011B0622E9
:1006E8004D488DF8281000F089FA002862D04B4B4D
:1006F800002B52D003A900913A464046484B04A922
:10070800AFF300800646721C06D0099B3344099358
:100718009AF80030002B88D1BB895B064CBF4FF09C
:10072800FF3009981DB0BDE8F08FB9EB0A0BF3D084
:100738005B46524639464046FFF77AFE0130EBD019
:10074800099B99F800205B4409937BE7A1F13002EB
:10075800092AAFD8079B1AF8011F03EB830302EBA2
:100768004303A1F13002092AF5D92E290793A3D111
:100778009AF801102A2927D1039B0AF102001A6866
:100788000433002A0393B8BF4FF0FF339AF80210DE
:1007980005928246B8BF05938EE7039B073323F083
:1007A800070308330393B0E7494243F00203079174
:1007B80004937BE703A900913A464046184B04A9E5
:1007C80000F0C6F806469EE70023A1F13002092A88
:1007D8000AF1010A05933FF66FAF1AF8011F03EB00
:1007E800830302EB4303A1F13002092AF5D90593EB
:1007F80062E7402100F0A2FB3860386110B1402365
:100808007B6103E70C234FF0FF30C8F8003089E71D
:10081800144900081C49000820490008000000008D
:10082800390400082DE9F04791461E460A698B688D
:100838000C469A42B8BF1A46C9F8002091F84330CE
:100848000546DDF8208013B10132C9F8002022687E
:1008580091065DD5D9F800300233C9F80030226816
:1008680012F0060F11461ED1E168CB1A002BD8BF33
:10087800114618DD002704F1190A06E0D9F80030FE
:10088800E268A2EB030CBC450CDD0123524631465D
:100898002846C047013007F10107EFD14FF0FF307C
:1008A800BDE8F087216894F84330003B18BF012366
:1008B8008A060AD53021E21882F8431094F84510C8
:1008C8005A1C2244023382F843103146284604F168
:1008D8004302C0470130E1D0236803F00603042B2C
:1008E8001DD0A3682269934225DD00279B1A1F4467
:1008F80004F11A09002401E0BC421CDA01234A462B
:1009080031462846C047013004F10104F4D1C5E757
:1009180012F0060F12D0003B18BF0123D5E7D9F813
:100928000030E1682269C91AA36821EAE177934295
:10093800DCDC0029DCDC0020BDE8F087E168D9F8C0
:100948000030CB1A002BD8BF114693DCABE700BFB1
:100958002DE9F04317460A7E85B00C4606469846B0
:100968000C9D01F1430C002A33D0A2F15803D9B2EF
:10097800202967D8202B65D8DFE813F0DD00640054
:10098800640064006400640064006400640064003F
:100998006400A3006E0064006400640064006E00DC
:1009A800640064006400640021007F00BF006400EC
:1009B8006400AE0064007F0064006400E400236803
:1009C8001A0640F102812B686269191D29601B68AB
:1009D8001A600023E14623613B4621463046CDF8A4
:1009E800008003AAFFF71EFF013020D04A4639468F
:1009F80030462369C047013019D02368E0689B0757
:100A0800039919D5431A002B16DD002504F119099D
:100A180004E0E0680399431AAB420DDD01234A461E
:100A280039463046C047013005F10105F1D14FF094
:100A3800FF3005B0BDE8F0838842B8BF084605B06E
:100A4800BDE8F083012384F8422004F142092361C0
:100A5800002384F84330BFE72368190602D45A06F6
:100A680000F1BF8029680A68043129601146002A0C
:100A78006ADB0A25DFF87CE110E02368180640F1FC
:100A88009A802B68191D296019686F2A0CBF0825E0
:100A98000A25DFF860E1002384F843306268002A01
:100AA800A2607DDB236823F004032360002959D169
:100AB800002A77D1E146082D63D0ACEB0903236106
:100AC8008AE701222B6804F14209196804332B6074
:100AD80084F842102261BBE72B6800211A1D2A60A6
:100AE800D3F800906268484600F088F800287FD064
:100AF800A0EB090060602061AAE7236843F02003A7
:100B080023607822DFF8F0E084F845202A68111D78
:100B18002960190642D45D0640D51188D80744BF1C
:100B280043F020032360002943D12368102523F0D4
:100B380020032360AFE75823DFF8B8E084F8453096
:100B48002368E3E72368DCE72D2284F84320626802
:100B58004942002AA26002DB23F0040323600A252D
:100B6800DFF890E0E146B1FBF5F30A4605FB131008
:100B780019461EF80030AA4209F8013DF3D2082DA3
:100B88009BD12368D90798D5626823699A4294DC77
:100B9800302309F1FF3989F800308EE71168BDE785
:100BA8000029DFD19EF8003004F1420984F8423070
:100BB80081E710256FE713F0400F2B6803F104015C
:100BC80029600CBF196819885FE713F0400F2B687C
:100BD800626903F1040129601B6814BF1A801A6056
:100BE800F7E62A68B2F9001004322A600A463EE79E
:100BF800606880E7284900083C4900085FFA81FCE2
:100C0800810710D00346511E2AB90AE09A071846F0
:100C18000AD0013905D3184613F8012B6245F5D1DE
:100C2800704700207047114603290CD80029F8D0D6
:100C38000346014401E08B42F3D0184613F8012B18
:100C48006245F8D1ECE7024610B54CEA0C2444EAB8
:100C580004441046036804326340A3F1013E2EEABF
:100C6800030313F0803F04D1043903291046F0D858
:100C780051B10346014401E08B4205D0184613F8F0
:100C8800012B6245F8D110BD002010BD844641EA11
:100C9800000313F0030349D1403A23D30B680360E0
:100CA8004B6843608B688360CB68C3600B690361E2
:100CB8004B6943618B698361CB69C3610B6A0362CA
:100CC8004B6A43628B6A8362CB6AC3620B6B0363B2
:100CD8004B6B43638B6B8363CB6BC3634030403197
:100CE800403ADBD230320BD30B6803604B68436069
:100CF8008B688360CB68C36010301031103AF3D230
:100D08000C3205D351F8043B40F8043B043AF9D2BD
:100D1800043208D0D2071CBF11F8013B00F8013B90
:100D280001D30B8803806046704700BF082A13D39D
:100D38008B07B1D010F00303AED0C3F10403D21A6D
:100D4800DB071CBF11F8013B00F8013BA4D331F8C5
:100D5800023B20F8023B9FE7043AD9D3013A11F845
:100D6800013B00F8013BF9D20B7803704B784370D4
:100D78008B7883706046704788420DD98B18834200
:100D88000AD900EB020CBAB1624613F801CD9942B8
:100D980002F801CDF9D170470F2A0ED8034602F1A7
:100DA800FF3C4AB10CF1010C013B8C4411F8012BBA
:100DB800614503F8012FF9D1704740EA01039B0709
:100DC8004FD1A2F1100370B501F1200C23F00F05EB
:100DD80001F1100E00F11004AC441B095EF8105C20
:100DE8000EF1100E44F8105C5EF81C5C103444F8E8
:100DF8001C5C5EF8185C44F8185C5EF8145CE64508
:100E080044F8145CEAD1013312F00C0F01EB031122
:100E180002F00F0400EB031327D08E46043C24F0A5
:100E280003064FEA940C1E441C1F5EF8045B44F84A
:100E3800045FB442F9D10CF1010402F0030203EBA0
:100E4800840301EB840102F1FF3C4AB10CF1010C6F
:100E5800013B8C4411F8012B614503F8012FF9D1AE
:100E680070BD034602F1FF3C9CE72246EBE700BF5A
:100E7800002952D038B551F8043C0C1F002BB8BFDC
:100E8800E418054600F0F0F82B4A1368002B45D00B
:100E9800A3420CD921686018834228D06360284691
:100EA8001460BDE8384000F0E1B8A3420FD81A46F4
:100EB8005B68002BF9D11168501884421DD034D3D7
:100EC800636054602846BDE8384000F0CFB8116828
:100ED8005018A04215D028D8216860188342EFD155
:100EE80018685B680144C4E900135460EAE71868AD
:100EF8005B680144C4E90013D1E723681944116011
:100F0800E0E720680144501883421160DAD1D3E940
:100F180000030144C2E90013D4E770472846636020
:100F28001460BDE8384000F0A1B80C2328462B60B7
:100F3800BDE8384000F09AB8A8000020F8B5CD1CEC
:100F480025F0030508350C2D38BF0C25002D064665
:100F580023DBA94221D8264F00F086F83A6822B34D
:100F6800144603E063682246FBB11C4623685B1BFA
:100F7800F8D40B2B15D8636894420CBF3B605360C0
:100F8800304600F073F804F10B00231D20F0070031
:100F9800C21A01D01B1AA350F8BD0C2300203360DD
:100FA800F8BD23601C442560EAE77968D1B1294679
:100FB800304600F047F8431C01460CD0C41C24F00E
:100FC8000304A04205D03046611A00F03BF8013016
:100FD80001D02560D4E70C233046336000F046F892
:100FE8000020F8BD304600F02DF87860DFE700BF3C
:100FF800A8000020F8B51446F9B1CAB106460D4656
:1010080000F036F8A04202D32F463846F8BD2146F4
:101018003046FFF793FF07460028F6D022462946B8
:10102800FFF734FE30462946FFF722FF3846F8BD61
:101038002746FFF71DFF3846F8BD1146BDE8F840C2
:10104800FFF77CBF002238B5064D044608462A60E3
:1010580000F018F8431C00D038BD2B68002BFBD0DB
:10106800236038BDB0000020704700BF704700BF44
:1010780051F8040C0028A0F10400BCBF0B58C0189C
:10108800704700BF044A05491368002B08BF0B4688
:101098001844106018467047B40000207002002001
:1010A80070B54FF0FF0C4CF4E06C1CEA11541DBFF6
:1010B8001CEA135594EA0C0F95EA0C0F00F0DEF8C1
:1010C8002C4481EA030621EA4C5123EA4C5350EAA6
:1010D800013518BF52EA033541F4801143F48013F7
:1010E80038D0A0FB02CE4FF00005E1FB02E506F088
:1010F8000042E0FB03E54FF00006E1FB03569CF0DD
:10110800000F18BF4EF0010EA4F1FF04B6F5007FE2
:1011180064F5407404D25FEA4E0E6D4146EB060654
:1011280042EAC62141EA55514FEAC52040EA5E50DD
:101138004FEACE2EB4F1FD0C88BFBCF5E06F1ED887
:10114800BEF1004F08BF5FEA500E50F1000041EBBE
:10115800045170BD06F0004646EA010140EA02006B
:1011680081EA0301B4EB5C04C2BFD4EB0C0541EA8D
:10117800045170BD41F480114FF0000E013C00F3A2
:10118800AB8014F1360FDEBF002001F0004170BDC6
:10119800C4F10004203C35DA0C341BDC04F11404DF
:1011A800C4F1200500FA05F320FA04F001FA05F26B
:1011B80040EA020001F0004221F0004110EBD37038
:1011C80021FA04F642EB06015EEA430E08BF20EA64
:1011D800D37070BDC4F10C04C4F1200500FA04F307
:1011E80020FA05F001FA04F240EA020001F0004199
:1011F80010EBD37041F100015EEA430E08BF20EA0C
:10120800D37070BDC4F1200500FA05F24EEA020E53
:1012180020FA04F301FA05F243EA020321FA04F082
:1012280001F0004121FA04F220EA020000EBD37039
:101238005EEA430E08BF20EAD37070BD94F0000F39
:101248000FD101F00046400041EB010111F4801F6D
:1012580008BF013CF7D041EA060195F0000F18BF1E
:10126800704703F00046520043EB030313F4801F5A
:1012780008BF013DF7D043EA0603704794EA0C0F14
:101288000CEA135518BF95EA0C0F0CD050EA41062A
:1012980018BF52EA4306D1D181EA030101F00041A7
:1012A8004FF0000070BD50EA410606BF10461946CF
:1012B80052EA430619D094EA0C0F02D150EA0136DB
:1012C80013D195EA0C0F05D152EA03361CBF10461C
:1012D80019460AD181EA030101F0004141F0FE41BB
:1012E80041F470014FF0000070BD41F0FE4141F43F
:1012F800780170BD4FF0FF0C1CEAD0521EBF1CEAEB
:10130800D15392EA0C0F93EA0C0F6FD01A4480EA7B
:10131800010C400218BF5FEA41211ED04FF0006364
:1013280043EA501043EA5111A0FB01310CF0004090
:10133800B1F5000F3EBF490041EAD3715B0040EAB6
:10134800010062F17F02FD2A1DD8B3F1004F40EB86
:10135800C25008BF20F00100704790F0000F0CF059
:10136800004C08BF49024CEA502040EA51207F3A1D
:10137800C2BFD2F1FF0340EAC250704740F40000F8
:101388004FF00003013A5DDC12F1190FDCBF00F0E9
:1013980000407047C2F10002410021FA02F1C2F197
:1013A800200200FA02FC5FEA310040F1000053EA33
:1013B8004C0308BF20EADC70704792F0000F00F081
:1013C800004C02BF400010F4000F013AF9D040EA87
:1013D8000C0093F0000F01F0004C02BF490011F41B
:1013E800000F013BF9D041EA0C018FE70CEAD15319
:1013F80092EA0C0F18BF93EA0C0F0AD030F0004C99
:1014080018BF31F0004CD8D180EA010000F000404C
:10141800704790F0000F17BF90F0004F084691F00A
:10142800000F91F0004F14D092EA0C0F01D1420244
:101438000FD193EA0C0F03D14B0218BF084608D10D
:1014480080EA010000F0004040F0FE4040F4000057
:10145800704740F0FE4040F44000704781F0004182
:1014680002E000BF83F0004330B54FEA41044FEA81
:10147800430594EA050F08BF90EA020F1FBF54EA1C
:10148800000C55EA020C7FEA645C7FEA655C00F0B8
:10149800E2804FEA5454D4EB5555B8BF6D420CDD89
:1014A8002C4480EA020281EA030382EA000083EA0C
:1014B800010180EA020281EA0303362D88BF30BDAC
:1014C80011F0004F4FEA01314FF4801C4CEA113102
:1014D80002D0404261EB410113F0004F4FEA033361
:1014E8004CEA133302D0524263EB430394EA050FEC
:1014F80000F0A780A4F10104D5F1200E0DDB02FA5B
:101508000EFC22FA05F2801841F1000103FA0EF2EE
:10151800801843FA05F359410EE0A5F120050EF1B4
:10152800200E012A03FA0EFC28BF4CF0020C43FAE5
:1015380005F3C01851EBE37101F0004507D54FF0F2
:10154800000EDCF1000C7EEB00006EEB0101B1F542
:10155800801F1BD3B1F5001F0CD349085FEA300088
:101568004FEA3C0C04F101044FEA445212F5800F93
:1015780080F09A80BCF1004F08BF5FEA500C50F130
:10158800000041EB045141EA050130BD5FEA4C0C13
:10159800404141EB0101013C28BFB1F5801FE9D270
:1015A80091F0000F04BF01460020B1FA81F308BF93
:1015B8002033A3F10B03B3F120020CDA0C3208DD5F
:1015C80002F1140CC2F10C0201FA0CF021FA02F13A
:1015D8000CE002F11402D8BFC2F1200C01FA02F1AA
:1015E80020FA0CFCDCBF41EA0C019040E41AA2BFCF
:1015F80001EB0451294330BD6FEA04041F3C1CDA97
:101608000C340EDC04F11404C4F1200220FA04F0B6
:1016180001FA02F340EA030021FA04F345EA030160
:1016280030BDC4F10C04C4F1200220FA02F001FA22
:1016380004F340EA0300294630BD21FA04F02946A4
:1016480030BD94F0000F83F4801306BF81F480113D
:101658000134013D4EE77FEA645C18BF7FEA655CB0
:1016680029D094EA050F08BF90EA020F05D054EA82
:10167800000C04BF1946104630BD91EA030F1EBF87
:101688000021002030BD5FEA545C05D1400049418B
:1016980028BF41F0004130BD14F580043CBF01F57E
:1016A800801130BD01F0004545F0FE4141F4700164
:1016B8004FF0000030BD7FEA645C1ABF194610463F
:1016C8007FEA655C1CBF0B46024650EA013406BF40
:1016D80052EA033591EA030F41F4002130BD00BFFF
:1016E80090F0000F04BF0021704730B54FF48064BC
:1016F80004F132044FF000054FF0000150E700BF3D
:1017080090F0000F04BF0021704730B54FF480649B
:1017180004F1320410F0004548BF40424FF0000188
:101728003EE700BF42004FEAE2014FEA31014FEACB
:1017380002701FBF12F07F4393F07F4F81F060511A
:10174800704732F07F4208BF704793F07F4F04BF65
:1017580041F40021704730B54FF4607401F0004542
:1017680021F000411CE700BF50EA010208BF7047A2
:1017780030B54FF000050AE050EA010208BF704793
:1017880030B511F0004502D5404261EB41014FF4FC
:10179800806404F132045FEA915C3FF4D8AE4FF004
:1017A80003025FEADC0C18BF03325FEADC0C18BFE7
:1017B800033202EBDC02C2F1200300FA03FC20FA38
:1017C80002F001FA03FE40EA0E0021FA02F1144485
:1017D800BDE600BF4FF0FF3C06E000BF4FF0010C34
:1017E80002E000BF4FF0010C4DF804CD4FEA410C68
:1017F8007FEA6C5C4FEA430C18BF7FEA6C5C1BD035
:1018080001B050EA410C0CBF52EA430C91EA030FB5
:1018180002BF90EA020F0020704710F1000F91EA12
:10182800030F58BF994208BF90422CBFD8176FEAE0
:10183800E37040F0010070474FEA410C7FEA6C5CAE
:1018480002D150EA013C07D14FEA430C7FEA6C5CB5
:10185800D6D152EA033CD3D05DF8040B704700BFE1
:101868008446104662468C461946634600E000BF2F
:1018780001B5FFF7B7FF002848BF10F1000F01BD01
:101888004DF808EDFFF7F4FF0CBF012000205DF8CC
:1018980008FB00BF4DF808EDFFF7EAFF34BF012051
:1018A80000205DF808FB00BF4DF808EDFFF7E0FFEA
:1018B80094BF012000205DF808FB00BF4DF808ED3B
:1018C800FFF7CEFF94BF012000205DF808FB00BFA2
:1018D8004DF808EDFFF7C4FF34BF012000205DF884
:1018E80008FB00BF4FEA410212F5001215D211D5CC
:1018F8006FF47873B3EB625212D94FEAC12343F005
:10190800004343EA505311F0004F23FA02F018BF86
:10191800404270474FF00000704750EA013005D14F
:1019280011F0004008BF6FF0004070474FF0000012
:10193800704700BF4FEA4102B2F1E04324BFB3F55C
:10194800001CDCF1FE5C0DD901F0004C4FEAC0022E
:101958004CEA5070B2F1004F40EB830008BF20F012
:101968000100704711F0804F21D113F13872BCBFCC
:1019780001F00040704741F480114FEA5252C2F121
:101988001802C2F1200C10FA0CF320FA02F018BF6A
:1019980040F001004FEAC1234FEAD32303FA0CFCBD
:1019A80040EA0C0023FA02F34FEA4303CCE77FEA4C
:1019B800625307D150EA01331EBF4FF0FE4040F496
:1019C8004000704701F0004040F0FE4040F4000045
:1019D800704700BF80F0004002E000BF81F0004186
:1019E80042001FBF5FEA410392EA030F7FEA226CBD
:1019F8007FEA236C6AD04FEA1262D2EB1363C1BF4D
:101A0800D218414048404140B8BF5B42192B88BFBB
:101A1800704710F0004F40F4000020F07F4018BFDE
:101A2800404211F0004F41F4000121F07F4118BFFE
:101A3800494292EA030F3FD0A2F1010241FA03FCA6
:101A480010EB0C00C3F1200301FA03F100F000438E
:101A580002D5494260EB4000B0F5000F13D3B0F156
:101A6800807F06D340084FEA310102F10102FE2AC5
:101A780051D2B1F1004F40EBC25008BF20F0010035
:101A880040EA03007047490040EB0000013A28BFD4
:101A9800B0F5000FEDD2B0FA80FCACF1080CB2EB57
:101AA8000C0200FA0CF0AABF00EBC25052421843D5
:101AB800BCBFD0401843704792F0000F81F400017A
:101AC80006BF80F400000132013BB5E74FEA41034D
:101AD8007FEA226C18BF7FEA236C21D092EA030FB9
:101AE80004D092F0000F08BF0846704790EA010F33
:101AF8001CBF0020704712F07F4F04D1400028BF60
:101B080040F00040704712F100723CBF00F5000041
:101B1800704700F0004343F0FE4040F40000704777
:101B28007FEA226216BF08467FEA23630146420223
:101B380006BF5FEA412390EA010F40F48000704736
:101B48004FF0000304E000BF10F0004348BF4042DC
:101B58005FEA000C08BF704743F0964301464FF018
:101B680000001CE050EA010208BF70474FF0000374
:101B78000AE000BF50EA010208BF704711F00043B5
:101B880002D5404261EB41015FEA010C02BF844685
:101B98000146002043F0B64308BFA3F18053A3F5E4
:101BA8000003BCFA8CF2083AA3EBC25310DB01FA2B
:101BB80002FC634400FA02FCC2F12002BCF1004FAF
:101BC80020FA02F243EB020008BF20F00100704740
:101BD80002F1200201FA02FCC2F1200250EA4C0094
:101BE80021FA02F243EB020008BF20EADC707047DA
:101BF8004FF0FF3C06E000BF4FF0010C02E000BFD1
:101C08004FF0010C4DF804CD4FEA40024FEA410372
:101C18007FEA226C18BF7FEA236C11D001B052EA28
:101C2800530C18BF90EA010F58BFB2EB030088BFEE
:101C3800C81738BF6FEAE17018BF40F0010070475D
:101C48007FEA226C02D15FEA402C05D17FEA236C3F
:101C5800E4D15FEA412CE1D05DF8040B704700BF86
:101C6800844608466146FFE70FB5FFF7C9FF00281D
:101C780048BF10F1000F0FBD4DF808EDFFF7F4FF56
:101C88000CBF012000205DF808FB00BF4DF808EDEF
:101C9800FFF7EAFF34BF012000205DF808FB00BF12
:101CA8004DF808EDFFF7E0FF94BF012000205DF834
:101CB80008FB00BF4DF808EDFFF7D2FF94BF0120E5
:101CC80000205DF808FB00BF4DF808EDFFF7C8FFDE
:101CD80034BF012000205DF808FB00BF4FEA400236
:101CE800B2F1FE4F0FD34FF09E03B3EB12620DD942
:101CF8004FEA002343F0004310F0004F23FA02F0AC
:101D080018BF404270474FF00000704712F1610F52
:101D180001D1420205D110F0004008BF6FF0004029
:101D280070474FF00000704782B0084B1B68084AA4
:101D3800A2FB03235B0A00FB03F3019300BF019B93
:101D48005A1E0192002BF9D102B07047640000209E
:101D5800D34D621070B582B00446036813F0010FCA
:101D68002CD09A4B5B6803F00C03042B1DD0974BC7
:101D78005B6803F00C03082B12D06368B3F5803F4F
:101D880041D0002B55D103F1804303F504331A6881
:101D980022F480321A601A6822F480221A6037E02E
:101DA8008A4B5B6813F4803FE7D0884B1B6813F4B9
:101DB800003F03D06368002B00F0AE81236813F066
:101DC800020F75D0814B5B6813F00C0F5FD07F4B0F
:101DD8005B6803F00C03082B54D02369002B00F038
:101DE8008A807B4B01221A6001F032F80546774B56
:101DF8001B6813F0020F75D101F02AF8401B022866
:101E0800F5D903208DE1714A136843F480331360D8
:101E1800636843B301F01CF805466C4B1B6813F468
:101E2800003FCBD101F014F8401B6428F5D90320FA
:101E380077E1B3F5A02F09D0644B1A6822F48032F9
:101E48001A601A6822F480221A60E1E703F18043DD
:101E5800A3F53C331A6842F480221A601A6842F4E7
:101E680080321A60D4E700F0F3FF0546574B1B6831
:101E780013F4003FA2D000F0EBFF401B6428F5D913
:101E880003204EE1514B5B6813F4803FA5D14F4BC3
:101E98001B6813F0020F03D02369012B40F03E8129
:101EA8004A4A136823F0F803616943EAC1031360DF
:101EB800236813F0080F33D0A369002B5CD0444B80
:101EC8000122C3F8802400F0C3FF05463F4B5B6A3C
:101ED80013F0020F21D100F0BBFF401B0228F5D9F7
:101EE80003201EE1394A136823F0F803616943EAC5
:101EF800C1031360DCE7364B00221A6000F0A8FF2C
:101F08000546324B1B6813F0020FD1D000F0A0FF3A
:101F1800401B0228F5D9032003E10120FFF704FF45
:101F2800236813F0040F00F09780284BDB6913F047
:101F3800805F34D1254BDA6942F08052DA61DB697F
:101F480003F080530193019B0125224B1B6813F476
:101F5800807F26D0E368012B3ED0002B54D103F1BB
:101F6800804303F504331A6A22F001021A621A6ADE
:101F780022F004021A6234E0154B0022C3F88024D0
:101F880000F066FF0546114B5B6A13F0020FC7D0DD
:101F980000F05EFF401B0228F5D90320C1E00025B0
:101FA800D3E70C4A136843F48073136000F050FFC2
:101FB8000646084B1B6813F4807FCBD100F048FF1E
:101FC800801B6428F5D90320ABE000BF0010024055
:101FD8000000424200700040544A136A43F0010373
:101FE8001362E36833B300F033FF06464F4B1B6AB6
:101FF80013F0020F2FD100F02BFF801B41F2883322
:102008009842F3D903208CE0052B09D0474B1A6A74
:1020180022F001021A621A6A22F004021A62E0E748
:10202800424B1A6A42F004021A621A6A42F001022A
:102038001A62D6E700F00CFF06463C4B1B6A13F009
:10204800020F08D000F004FF801B41F28833984249
:10205800F3D9032065E0E5B9E369002B60D0334A82
:10206800526802F00C02082A5DD0022B17D0304BC0
:1020780000221A6600F0ECFE04462C4B1B6813F095
:10208800007F47D000F0E4FE001B0228F5D90320AA
:1020980047E0264AD36923F08053D361DCE7244B19
:1020A80000221A6600F0D4FE0546204B1B6813F088
:1020B800007F06D000F0CCFE401B0228F5D9032093
:1020C8002FE0236AB3F5803F1AD018494B6823F4F0
:1020D8007413226A606A024313434B60144B012253
:1020E8001A6600F0B5FE0446104B1B6813F0007F1B
:1020F8000ED100F0ADFE001B0228F5D9032010E038
:102108000A4A536823F40033A1680B435360DCE7A1
:10211800002006E0002004E0012002E0012000E0A9
:10212800002002B070BD0120FBE700BF0010024094
:102138000000424286B0174B0FCB0DF1180C0CE98A
:102148000F0040F20123ADF80430134B5B6803F035
:102158000C02082A02D0114806B07047C3F3834224
:1021680018326A4412F8100C13F4803F0DD00A4B51
:102178005B68C3F3404318336B4413F8142C074BC4
:10218800B3FBF2F303FB00F0E6E7054B03FB00F0BB
:10219800E2E700BFB44800080010024000127A00CD
:1021A80000093D0070B504460D46594B1B6803F005
:1021B80007038B420BD2564A136823F007030B43DD
:1021C8001360136803F007038B4240F09A8023687A
:1021D80013F0020F06D04F4A536823F0F003A168AA
:1021E8000B435360236813F0010F52D06368012B2F
:1021F80023D0022B28D0474A126812F0020F00F0B1
:10220800828044494A6822F0030213434B6000F07D
:102218001FFE06466368012B1DD0022B2AD03D4BBA
:102228005B6813F00C0F34D000F012FE831B41F2F0
:1022380088329342F3D9032062E0364A126812F4D6
:10224800003FDED101205BE0324A126812F0007FC5
:10225800D7D1012054E02F4B5B6803F00C03042B0B
:1022680017D000F0F5FD831B41F288329342F2D972
:10227800032045E0274B5B6803F00C03082B08D0CC
:1022880000F0E6FD801B41F288339842F2D9032022
:1022980036E01F4B1B6803F00703AB420AD91C4A00
:1022A800136823F007032B431360136803F0070335
:1022B800AB422AD1236813F0040F06D0154A53689D
:1022C80023F4E063E1680B435360236813F0080FBD
:1022D80007D0104A536823F46053216943EAC103C5
:1022E8005360FFF727FF0B4B5B68C3F303130A4ADE
:1022F800D35CD840094B1860002000F079FD00201D
:1023080070BD0120FCE70120FAE70120F8E700BFD3
:102318000020024000100240D0480008640000205D
:10232800014B1868704700BF6400002008B5FFF72C
:10233800F7FF044B5B68C3F30223034AD35CD8401E
:1023480008BD00BF00100240C848000808B5FFF7E4
:10235800E7FF044B5B68C3F3C223034AD35CD8404E
:1023680008BD00BF00100240C848000830B4036A26
:1023780023F001030362036A4268846924F0730C42
:102388000C6844EA0C0423F0020C8B6843EA0C0343
:10239800114DA84203D005F50065A84205D123F0E8
:1023A8000803CD682B4323F004030B4DA84203D048
:1023B80005F50065A84207D122F440724D6945EA47
:1023C800020C8A6942EA0C02426084614A684263EC
:1023D800036230BC704700BF002C014030B4036A70
:1023E80023F480730362036A4268C46924F0730C9F
:1023F8000C6844EA0C0523F400738C6843EA042350
:10240800114CA04203D004F50064A04206D123F485
:102418000063CC6843EA042323F480630A4CA04297
:1024280003D004F50064A04207D122F440524C695D
:1024380042EA04128C6942EA04124260C5614A68A1
:10244800C263036230BC7047002C014030B4036A99
:1024580023F480530362036A4468C26922F4E642A3
:102468000D6842EA052223F400538D6843EA0533D8
:10247800094DA84203D005F50065A84204D124F40B
:1024880080444D6944EA85144460C2614A68026424
:10249800036230BC704700BF002C014010B4036ACF
:1024A800046A24F001040462846924F0F00C4CEA04
:1024B800021223F00A030B438261036210BC7047C7
:1024C80010B4036A23F0100303628469036A24F4D6
:1024D800704C4CEA023223F0A00343EA01138261F4
:1024E800036210BC704710B4846824F47F4C42EA3D
:1024F80003220A4342EA0C02826010BC704710B5FE
:102508000468A26822F070024B68134323F00703A3
:102518000A681A43A2604B68602B24D009D8402B64
:1025280010D0502B0DD10A6989680068FFF7B6FFF3
:1025380007E0702B05D10B698A68C9680068FFF746
:10254800D2FF10BD03681C6A1A6A22F001021A62DF
:102558000268936923F0F003096943EA0113936160
:1025680003681C62EDE70A6989680068FFF7A8FF3D
:10257800E7E7704738B590F83C30012B18D004468F
:10258800012580F83C50022380F83D30FFF7B7FF63
:102598002268D36823F04003D3602268D36823F409
:1025A8008043D36084F83D50002084F83C0038BD57
:1025B8000220FCE70368244A904212D002F5006228
:1025C80090420ED0B0F1804F0BD0A2F598329042D5
:1025D80007D002F58062904203D002F580629042F3
:1025E80003D123F070034A681343174A904212D06C
:1025F80002F5006290420ED0B0F1804F0BD0A2F5E8
:102608009832904207D002F58062904203D002F5DA
:102618008062904203D123F44073CA68134323F0C5
:1026280080034A691A4302608B68C3620B6883623D
:10263800054B984203D003F50063984201D10B691A
:102648000363012343617047002C0140B0B110B50A
:10265800044690F83D3063B1022384F83D302146AA
:1026680051F8040BFFF7A6FF012384F83D30002042
:1026780010BD80F83C30FFF77CFFEDE70120704784
:1026880030B4036A23F010030362036A4468826962
:1026980022F4E6420D6842EA052223F020038D6801
:1026A80043EA0513114DA84203D005F50065A84279
:1026B80006D123F08003CD6843EA051323F04003D5
:1026C8000A4DA84203D005F50065A84207D124F4B5
:1026D80040644D6944EA85048D6944EA8504446090
:1026E80082614A688263036230BC7047002C0140F3
:1026F80038B590F83C30012B66D004460D460123CE
:1027080080F83C30022380F83D300C2A1AD8DFE8E4
:1027180002F007191919201919193419191947003C
:102728000068FFF723FE2268936943F0080393616A
:102738002268936923F004039361226893692969E5
:102748000B439361012384F83D30002084F83C005A
:1027580038BD0068FFF794FF2268936943F400636B
:1027680093612268936923F4806393612268936973
:10277800296943EA01239361E4E70068FFF72EFE25
:102788002268D36943F00803D3612268D36923F030
:102798000403D3612268D36929690B43D361D1E764
:1027A8000068FFF753FE2268D36943F40063D361DE
:1027B8002268D36923F48063D3612268D3692969C5
:1027C80043EA0123D361BDE70220C1E74FF0010CC2
:1027D8000CFA01FC036A23EA0C030362036A8A40C9
:1027E800134303627047000010B5044601220068D5
:1027F800FFF7ECFF2368094A934203D002F5006211
:10280800934203D15A6C42F400425A642268136816
:1028180043F001031360002010BD00BF002C0140ED
:102828004FF0040C0CFA01FC036A23EA0C03036260
:10283800036A8A4013430362704710B504460422B2
:102848000068FFF7EDFF2268536C43F400435364BC
:102858002268136843F001031360002010BD02468C
:1028680090F83C30012B21D0012380F83C30CB6814
:1028780023F440738868034323F480634868034360
:1028880023F400630868034323F48053086903436F
:1028980023F4005348690343896923F440430B43F5
:1028A80011684B64002082F83C0070470220704792
:1028B80090F83C20012A22D030B40346012083F846
:1028C8003C00022283F83D201C68626822F07002F6
:1028D80062601C6862680D682A4362601C68A268AE
:1028E80022F08002A2601C68A26849680A43A260BC
:1028F80083F83D00002083F83C0030BC704702207C
:102908007047000090F82420012A25D08CB0034697
:10291800012280F82420114A00920268906810F081
:10292800010F07D10D48806810F0010F02D10C4843
:10293800824209D09A6A42F020029A62012000225B
:1029480083F824200CB07047506820F47020096880
:10295800014351600020F2E702207047002801403F
:1029680000240140002808DB0901C9B200F16040D9
:1029780000F5614080F80013704700F00F0009016E
:10298800C9B2014B1954704714ED00E000B500F0CE
:102998000700C0F1070CBCF1040F28BF4FF0040C6E
:1029A800031D062B0FD9C31E4FF0FF3E0EFA0CF085
:1029B80021EA000199400EFA03FE22EA0E0241EADA
:1029C80002005DF804FB0023EEE70000074AD36825
:1029D80023F4E0631B041B0C000200F4E0600343D3
:1029E80043F0BF6343F40033D360704700ED00E069
:1029F80010B50446054BD868C0F30220FFF7C6FFA0
:102A080001462046FFF7AEFF10BD00BF00ED00E015
:102A180000F01F02400901239340024A42F8203087
:102A2800704700BF00E100E00138B0F1807F0BD2B1
:102A38004FF0E0235861054AF02182F82310002066
:102A4800986107221A6170470120704700ED00E085
:102A5800042806D04FF0E022136923F00403136121
:102A680070474FF0E022136943F004031361704785
:102A7800704708B5FFF7FCFF08BD0000F0B583B04C
:102A880000252A46ACE0844EB44210D007D9834EC4
:102A9800B4420CD006F58036B44208D013E0A6F54F
:102AA8008016B44203D006F57026B44207D18C686C
:102AB800002C5FD0012C58D04361082503E0A6F50F
:102AC8008016B442F3D0BCF1FF0F55D806469400E7
:102AD80033684FF00F0E0EFA04FE23EA0E0305FAD0
:102AE80004F4234333604B6813F0805F77D06C4B5A
:102AF8009C6944F001049C619B6903F00103019304
:102B0800019B9408A61C674B53F8267002F0030635
:102B1800B6000F23B34027EA030E634B984232D026
:102B280003F58063984200F0958003F5806398422E
:102B380000F0928003F58063984200F08F8003F5DF
:102B48008063984200F08C8003F58063984218D027
:102B5800062319E0CD68B6E7CD680435B3E7CD683C
:102B68000835B0E7CD680C35ADE703610825AAE75D
:102B78000025A8E70425A6E7061DA2F10804A4007D
:102B8800A6E7052300E00023B34043EA0E0302341E
:102B9800444E46F824304B6813F4803F62D0434CCF
:102BA800236843EA0C0323604B6813F4003F5FD0AB
:102BB8003E4C636843EA0C0363604B6813F4801F60
:102BC8005CD03A4CA36843EA0C03A3604B6813F447
:102BD800001F59D0354CE36843EA0C03E360013227
:102BE8000F2A57D8012393400C6804EA030C33EAF0
:102BF8000404F4D14C68122C3FF645AF122C3FF672
:102C080062AF01A656F824F0B72A00085D2B000829
:102C1800672B0008792B0008CF2A0008CF2A000864
:102C2800CF2A0008CF2A0008CF2A0008CF2A000898
:102C3800CF2A0008CF2A0008CF2A0008CF2A000888
:102C4800CF2A0008CF2A0008CF2A0008612B0008E5
:102C58006D2B0008012397E7022395E7032393E7E9
:102C6800042391E7114C236823EA0C0323609BE7B4
:102C78000E4C636823EA0C0363609EE70B4CA36861
:102C880023EA0C03A360A1E7084CE36823EA0C03DA
:102C9800E360A4E703B0F0BD00002210000031108B
:102CA80000100240000001400008014000040140FB
:102CB8008368194201D001207047002070470AB18B
:102CC80001617047090401617047C3685940C160D8
:102CD8007047000070B582B00446036813F0010F16
:102CE80036D03F4BDB6913F0805F49D13C4BDA6942
:102CF80042F08052DA61DB6903F080530193019B53
:102D08000125384B1B6813F4807F3BD0344B1B6A7A
:102D180013F4407313D0626802F440729A420ED0E2
:102D28002F4A136A23F440702F490126C1F84064E2
:102D38000026C1F84064106213F0010F36D1284A0A
:102D4800136A23F4407361680B431362002D3ED16C
:102D5800236813F0020F06D0214A536823F4404336
:102D6800A1680B435360236813F0100F34D01C4A3A
:102D7800536823F4800361690B43536000202CE0FF
:102D88000025BEE7174A136843F48073136000F008
:102D98005FF80646134B1B6813F4807FB6D100F02A
:102DA80057F8801B6428F5D9032016E000F050F886
:102DB80006460B4B1B6A13F0020FC0D100F048F80F
:102DC800801B41F288339842F3D9032005E0D36988
:102DD80023F08053D361BBE7002002B070BD00BF71
:102DE800001002400070004000004242704700009E
:102DF80010B50446074B1868074BA3FB0030800941
:102E0800FFF712FE002221464FF0FF30FFF7F0FDDA
:102E1800002010BD64000020D34D621008B5074A99
:102E2800136843F0100313600320FFF7CFFD002061
:102E3800FFF7DEFFFFF7DAFF002008BD00200240A1
:102E4800024A136801331360704700BFB8000020BE
:102E5800014B1868704700BFB800002030B583B038
:102E68000190FFF7F5FF0546019CB4F1FF3F00D044
:102E78000134FFF7EDFF401BA042FAD303B030BD89
:102E88007047000030B482B00022019290F82420EC
:102E9800012A00F08F800346012280F824204A6826
:102EA800062A2DD80468606B02EB8202053A4FF0BF
:102EB8001F0C0CFA02FC20EA0C000D6805FA02F25D
:102EC800024362630A68092A38D91C68E06802EB81
:102ED80042021E3A4FF0070C0CFA02FC20EA0C00E2
:102EE8008D6805FA02F20243E2600A68103A012A84
:102EF80034D90020002283F8242002B030BC704767
:102F08000C2A0DD80568286B02EB8202233A1F248D
:102F1800944020EA04000C68944020432863D1E7D9
:102F28000568E86A02EB8202413A1F24944020EACD
:102F380004000C6894402043E862C3E71C682069D9
:102F480002EB42024FF0070C0CFA02FC20EA0C00DC
:102F58008D6805FA02F202432261C6E71A6816482C
:102F6800824205D09A6A42F020029A620120C1E7A3
:102F7800906810F4000F1BD1906840F40000906036
:102F88000A68102A01D00020B4E70C4A12680C49DC
:102F9800A1FB0212920C02EB82025200019202E0A3
:102FA800019A013A0192019A002AF9D10020A1E779
:102FB80000209FE70220A0E70024014064000020D1
:102FC80083DE1B4330B583B00023019303689A68FE
:102FD80012F0010F2ED104469A6842F001029A605D
:102FE800164B1B68164AA2FB03239B0C019302E0B5
:102FF800019B013B0193019B002BF9D1FFF728FFAF
:10300800054623689B6813F0010F11D1FFF720FFD5
:10301800431B022BF5D9A36A43F01003A362E36AAA
:1030280043F00103E362002384F82430012002E026
:10303800002000E0002003B030BD00BF6400002085
:1030480083DE1B4390F82430012B68D010B504466A
:10305800012380F82430FFF7B5FF00285BD1A36A6D
:1030680023F4407323F0010343F48073A3622368BD
:103078002C4A934227D0A26A22F48012A2625A688C
:1030880012F4806F05D0A26A22F4405242F48052B2
:10309800A262A26A12F4805F2BD0E26A22F00602D2
:1030A800E262002284F824206FF002021A6023688A
:1030B8009A6802F46022B2F5602F1DD09A6842F433
:1030C80080129A602AE0A2F58062526812F4702F8A
:1030D800D1D0A26A42F48012A262134A526812F452
:1030E800806FD6D0A26A22F4405242F48052A26283
:1030F800CFE70022E262D4E70A4A934204D09A68F2
:1031080042F4A0029A6009E0A2F58062526812F4C3
:10311800702FD3D1F3E7002384F8243010BD0220A8
:10312800704700BF002801400024014038B50368FB
:103138009A6812F0010F01D1002038BD04469A6840
:1031480022F001029A60FFF783FE054623689B6818
:1031580013F0010F0ED0FFF77BFE431B022BF5D9AE
:10316800A36A43F01003A362E36A43F00103E36236
:103178000120E2E70020E0E7002800F08680F8B5AB
:103188000446836A002B50D02046FFF7CFFFA36A7E
:1031980013F0100373D1002871D1A26A22F4885267
:1031A80022F0020242F00202A262626826683849EE
:1031B8008E4240D0E1690A43E16842EA4102A568CB
:1031C800B5F5807F02D0012D3CD01D466769012FDF
:1031D8003BD0716821F46941294371602568AE6864
:1031E8002C4931401143A960A168B1F5807F01D015
:1031F800012902D12369013B1B052568E96A21F4ED
:1032080070010B43EB6223689968234B0B409A4289
:103218002CD0A36A23F0120343F01003A362E36ADD
:1032280043F00103E36201202EE0C36280F82430FA
:10323800FFF726FEA8E7E169B1F5402FBBD14FF4AF
:103248000021B8E74FF48075C0E731B9A1690139A9
:1032580045EA413141F40065BBE7A16A41F020012C
:10326800A162E16A41F00101E162B2E70023E36291
:10327800A36A23F0030343F00103A36204E0A36AF3
:1032880043F01003A3620120F8BD0120704700BF7E
:10329800003C0140FDF7E1FFFE0E1FFF2DE9F04164
:1032A80004460268136923F44053C1680B43136151
:1032B800836802691343426913430168CA6822F4A8
:1032C800B05222F00C021343CB600268536923F416
:1032D800407381690B4353610268574B9A4255D03A
:1032E800FFF724F800EB800000EB800063689B0088
:1032F800B0FBF3F5514FA7FB05356D092E01FFF71C
:1033080015F800EB800000EB800063689B00B0FBC1
:10331800F3F5FFF70BF800EB800000EB8000636823
:103328009B00B0FBF3F0A7FB003040094FF06408A6
:1033380008FB10531B013233A7FB03235B0903F07F
:10334800F003F518FEF7F2FF00EB800000EB8000B9
:1033580063689B00B0FBF3F6FEF7E8FF00EB800024
:1033680000EB800063689B00B0FBF3F0A7FB003024
:10337800400908FB10631B013233A7FB0373C3F337
:10338800431322681D449560BDE8F081FEF7DEFF17
:1033980000EB800000EB800063689B00B0FBF3F556
:1033A800264FA7FB05356D092E01FEF7CFFF00EB71
:1033B800800000EB800063689B00B0FBF3F5FEF72C
:1033C800C5FF00EB800000EB800063689B00B0FB4A
:1033D800F3F0A7FB003040094FF0640808FB1053D6
:1033E8001B013233A7FB03235B0903F0F003F51835
:1033F800FEF7ACFF00EB800000EB800063689B00E9
:10340800B0FBF3F6FEF7A2FF00EB800000EB8000B4
:1034180063689B00B0FBF3F0A7FB0030400908FB92
:1034280010631B013233A7FB0373C3F343132268F2
:103438001D449560A8E700BF003801401F85EB5187
:10344800704758B310B5044690F839300BB32423AD
:1034580084F839302268D36823F40053D3602046B7
:10346800FFF71CFF2268136923F490431361226855
:10347800536923F02A0353612268D36843F4005345
:10348800D3600020E063202384F8393084F83A3090
:1034980010BD80F83830FFF7D3FFD8E70120704718
:1034A8000F4B1A6842F001021A6059680D4A0A4027
:1034B8005A601A6822F0847222F480321A601A68FC
:1034C80022F480221A605A6822F4FE025A604FF4ED
:1034D8001F029A60044B4FF000629A60704700BF69
:1034E800001002400000FFF800ED00E030B597B092
:1034F8001F4BDA6942F48022DA61DA6902F4802229
:103508000092009A5A6942F001025A615B6903F01D
:1035180001030193019B174D06954FF4E13307937F
:103528000024089409940A9408230B930C940D948E
:1035380006A8FFF786FF6B6943F080036B614FF4C1
:1035480080630293012304930223039303230593C7
:1035580002A90948FFF792FA084BDC61084A5A6247
:103568001C629022DA6170225A6017B030BD00BF29
:103578000010024000480040000C014000000240DA
:10358800044800402DE9F04F89B0834B9A6942F016
:1035980004029A619A6902F004020192019A9A69F6
:1035A80042F008029A619A6902F008020292029AAD
:1035B8009A6942F010029A619B6903F01003039321
:1035C800039B002305930693022707974FF0200AD1
:1035D800CDF810A0714E04A93046FFF74FFA4023EA
:1035E800049304A93046FFF749FA4FF0800BCDF851
:1035F80010B004A93046FFF741FA4FF480620492F4
:10360800674C04A92046FFF739FA4FF40063049386
:1036180004A92046FFF732FA4FF48055049504A90F
:103628002046FFF72BFA049505F1804505F5784506
:1036380004A92846FFF722FA049704A92846FFF7A9
:103648001DFA4FF00108CDF814804FF00409CDF8A9
:10365800109004A93046FFF711FA102104910DEBE0
:10366800010001462846FFF709FACDF810A004A882
:1036780001462846FFF702FA03230593CDF8108088
:1036880004A801462046FFF7F9F9CDF8108004A8F0
:1036980001462846FFF7F2F9082004900DF1100CB6
:1036A80061462046FFF7EAF904970DF1100C6146D0
:1036B8002046FFF7E3F91021049169442046FFF7FB
:1036C800DDF9CDF810A004A92046FFF7D7F9CDF809
:1036D800109004A92046FFF7D1F90820049004A906
:1036E8002846FFF7CBF9CDF8109004A92846FFF734
:1036F800C5F905974023049304A92046FFF7BEF9AE
:10370800CDF810B004A92046FFF7B8F94FF4807936
:10371800CDF8109004A92046FFF7B0F9CDF810B005
:1037280004A92846FFF7AAF9CDF8108004A9304665
:10373800FFF7A4F9049704A93046FFF79FF9CDF8DD
:10374800109004A92846FFF799F94FF400730493E1
:1037580004A92846FFF792F94FF48062049204A95D
:103768002846FFF78BF94FF40053049304A9304619
:10377800FFF784F94FF48043049304A93046FFF718
:103788007DF94FF40043049304A93046FFF776F916
:1037980009B0BDE8F08F00BF00100240000C0140E6
:1037A800001001402DE9F04F99B0784B9A6942F426
:1037B80000629A619A6902F400620192019A9A6918
:1037C80042F400529A619B6903F400530293029BEE
:1037D8006F4EDFF8C091C6F80090002474604FF077
:1037E8002008C6F808804FF4FA6BC6F80CB03461AC
:1037F8007461B4613046FEF729FF102316931794BD
:1038080016A93046FFF754F860230F9310941194CB
:1038180008271297139414944FF4007215922246B5
:103828000FA93046FEF764FF04220FA93046FEF7C1
:103838005FFF3A460FA93046FEF75AFF4FF4006182
:1038480008914FF4806009900A94CDF82C800C946C
:103858000D940E940DEB080529463046FEF7FFFF40
:103868004D4DDFF838A1C5F800A06C60C5F8088098
:10387800C5F80CB02C616C61AC612846FEF7E6FE19
:10388800CDF85880802317930DF1580C61462846CF
:10389800FFF70EF804940523039303A92846FEF7BF
:1038A80069FE60230F931094119412971394149443
:1038B8004FF40072159222460FAB19462846FEF7C0
:1038C80017FF04220FAB19462846FEF711FF3A46A8
:1038D8000FAB19462846FEF70BFF4FF4006108911D
:1038E8004FF4806009900A94CDF82C800C940D94C4
:1038F8000E940DEB08012846FEF7B1FFDAF84430C4
:1039080023F40043CAF84430D9F8443023F4004380
:10391800C9F8443021462846FEF766FF04212846A8
:10392800FEF762FF39462846FEF75EFF2146284625
:10393800FEF783FF04212846FEF77FFF3946284615
:10394800FEF77BFF21463046FEF74EFF0421304646
:10395800FEF74AFF39463046FEF746FF2146304615
:10396800FEF76BFF04213046FEF767FF3946304605
:10397800FEF763FF2B6801221A633268136843F06D
:103988000103136019B0BDE8F08F00BF00100240BA
:1039980070010020002C014030010020003401405B
:1039A8002DE9F04186B0414EB36943F40073B36129
:1039B800B36903F400730093009B3D4C3D4B2360B7
:1039C8004FF48073A3600025E56065614FF44023E0
:1039D800E36165604FF00508C4F810802046FFF7E2
:1039E800CBFB354A536843F4802353604FF4C0231C
:1039F800059305A92046FEF785FF012304930E22AF
:103A08000292039302A92046FFF73CFA0295022787
:103A1800039702A92046FFF735FA04970B27029768
:103A28000323039302A92046FFF72CFA0C230293E1
:103A38000423039302A92046FFF724FA07230493DB
:103A480010230293CDF80C8002A92046FFF71AFA3A
:103A58002268936843F4000343F480739360936887
:103A680043F001039360736943F001037361736961
:103A780003F001030193019B104B9D60C3F80C8078
:103A88000F4A1A610F4A5A6140F6A2229A609A6850
:103A980042F001029A602A4629463846FEF7A8FFF6
:103AA8003846FEF7B5FF06B0BDE8F08100100240C9
:103AB80000010020002401400000014000000240F5
:103AC8004C240140BC000020F0B585B0284B9A6911
:103AD80042F480629A619B6903F480630093009BBF
:103AE800244C254B23604FF48073A3600023E360CC
:103AF80063614FF46022E261636005262661204617
:103B0800FFF73AFB012303930F220192029301A9C5
:103B18002046FFF7B7F90D2301930225029501A965
:103B28002046FFF7AFF903950A230193032702976D
:103B380001A92046FFF7A6F90195042302930DEB8E
:103B480003012046FFF79EF9072303930197029686
:103B580001A92046FFF796F923689A6842F4807213
:103B68009A609A6842F001029A6005B0F0BD00BF01
:103B780000100240D00000200028014010B50024A9
:103B8800094B1C70094B1C7005E0094B1C70642024
:103B9800FFF764F90134072CF7DD002220210548DE
:103BA800FFF78DF8FEE700BFD8010020D401002000
:103BB800DC0100200008014030B597B002250C95C3
:103BC80001231093102311931395002414944FF498
:103BD800601315930CA8FEF7BDF80F2307930895FB
:103BE80009944FF480630A930B94294607A8FEF7BB
:103BF800D9FA01954FF44043039301A8FFF76AF8F7
:103C0800FEF78EFB084BA3FB00308009FEF70CFF84
:103C18000420FEF71DFF224621464FF0FF30FEF735
:103C2800E7FE17B030BD00BFD34D621000000000A2
:103C38002DE9F04F85B0FFF7F1F8AF4CA36943F0D9
:103C48000103A361A36903F001030393039B03200A
:103C5800FEF7BCFE002211466FF00B00FEF7C8FE0F
:103C6800002211466FF00A00FEF7C2FE002211463C
:103C78006FF00900FEF7BCFE002211466FF0040049
:103C8800FEF7B6FE002211466FF00300FEF7B0FE05
:103C9800002211466FF00100FEF7AAFE002211462D
:103CA8004FF0FF30FEF7A4FEFFF786FF636923F0AD
:103CB80001036361FFF766FCFFF774FDFFF770FE11
:103CC800FFF702FFFFF712FC012220218B48FEF7C5
:103CD800F6FF8B48FFF7B6F98A48FFF7B3F90824CF
:103CE80005E0894B1C706420FFF7B8F8013C002CF4
:103CF800F7DA4FF0000A844B83F800A00122042170
:103D08008248FEF7DCFF824B188A80B2FDF718FF65
:103D18000190804B01221A70D3464FE17E490A6810
:103D280001320A6056E14FF47A7932463B46204622
:103D38002946FDF799FB04460D460022774BFDF70F
:103D4800C7FD88B966A3D3E9002320462946FDF7B5
:103D5800A1FD00285DD120462946FDF7C3FD044694
:103D680004E0DFF8BC91E0E74FF47A740AF131031C
:103D7800A34215DBAAF1310AA24511DC0BF131038C
:103D88004B450DDBABF131034B4509DC654B1B683B
:103D9800042B05D8644BC3F800906342634A136050
:103DA800634B1A68634BA3FB0213DB0803EB830323
:103DB80003EB83039A422ED002215048FEF778FF86
:103DC80030B15D4B1B681BB95C4B1B68002B78D06E
:103DD8005B4B1D685B492846FDF758FF20B15A4BDD
:103DE8001B681333262B77D958492846FDF74EFF11
:103DF800002800F0B78053492846FDF765FF0028E2
:103E080000F0B080404B05221A70514B06221A7000
:103E1800B4E0434CAAE70198FDF784FC32A3D3E948
:103E28000023FDF73DF906460F46DFF8E4A0BAF88F
:103E3800100080B2FDF784FEFDF774FC2CA3D3E9D3
:103E48000023FDF72DF902460B4630463946FDF7AB
:103E58000BFBFDF76FFD064601903E49FDF7BEFDE1
:103E68003D49FDF747FA3D49FDF7BAFD0546494684
:103E7800022000F095FC2146032000F091FCBAF8DE
:103E88000C1089B2042000F08BFC35492C4B1868C3
:103E9800FDF730FAFDF722FF0146052000F080FC0F
:103EA8003046FDF71BFF0146062000F079FC284646
:103EB800FDF714FF0146072000F072FC00F076FCC5
:103EC8007AE7144B00221A7002210C48FEF7F0FE24
:103ED8000028F9D1FFF752FEFFF750FEAFF300803C
:103EE8000000000000408FC0AE47E17A14AEEF3FFB
:103EF8007B14AE47E17A843F00100240000801407D
:103F080000010020D0000020DC010020000C01404E
:103F1800BC000020D4010020C001002000408F40D8
:103F280018FCFFFF68000020E8010020EC010020D9
:103F3800B00100201F85EB51E0010020E4010020C2
:103F480070000020CCCC0642B801002000000C42D2
:103F5800D801002000E0CE44083748BE33330F4272
:103F68000000C842684B1B6813F1320F80F2B18021
:103F7800664B05221A70664B01221A7084EAE473B4
:103F8800A3EBE473322B06DC89EAE973A3EBE9734C
:103F9800322B40F3A4805F4B00221A605D4B1A68F5
:103FA8005D4B9A4200F2A0805C4A136801331360AB
:103FB8005B4A136801331360CB46A2460520FEF71F
:103FC8004DFF584B1B68012B3FF4A8AE56490A68B1
:103FD800013A0A60544A176887EAE772A2EBE77267
:103FE800B2F5967F02DD5B424E4A13604C4B0022CD
:103FF8001A60DFF83891D9F80000FDF781FB3CA37F
:10400800D3E90023FDF74CF804460D46484B1868E1
:10401800FDF776FB38A3D3E90023FDF741F8024604
:104028000B4620462946FDF71FFAFDF75BFC0646BE
:10403800C9F80000DFF8D090D9F80000FDF760FB60
:104048002BA3D3E90023FDF72BF804460D46384689
:10405800FDF756FB28A3D3E90023FDF721F8024614
:104068000B4620462946FDF7FFF9FDF73BFCC9F84A
:104078000000FDF745FB00222E4BFDF711F8044622
:104088000D463046FDF73CFB00222A4BFDF708F8A9
:1040980006460F4602460B4620462946FDF7E2F93A
:1040A800804689460022244BFDF712FC00287FF445
:1040B8003AAE13A3D3E9002340464946FDF7EAFB8D
:1040C80000287FF44EAE40464946FDF70BFC81467A
:1040D8002BE600230D4A13700D4A13704EE70D4A64
:1040E80013680133136059E7FFF748FDAFF3008009
:1040F800CDCCCCCCCCCCEC3F9A9999999999B93F35
:104108000000000000408FC0B8010020DC01002042
:10411800D8010020B401002080380100B00100203F
:10412800680000206C000020C0010020BC010020B5
:10413800C40100200000E03F00408F4005292ED830
:10414800DFE801F0030A11181F260021116018602A
:104158004042009B1860704741421160186000237C
:10416800009A136070474142116000221A60009B58
:10417800186070470021116042421A60009B186065
:1041880070471060404218600023009A136070471F
:10419800106000221A604042009B1860704700219E
:1041A80011601960009B19607047052812D8DFE874
:1041B80000F00306080A0C0E891A19607047196086
:1041C8007047196070471A6070471A607047511A33
:1041D8001960704700221A60704700000000000054
:1041E8007D4B02225A607D4B1B68B3F57A7F61DBF9
:1041F80070B58EB07A4B1A687A4BA3FB02139B09F1
:104208004FF47A7101FB132313BB774E3068FDF727
:1042180089FA6BA3D3E90023FCF742FF04460D4655
:10422800724B988980B2FDF78BFC7149FDF762F8F3
:10423800FDF778FA64A3D3E90023FCF731FF0246BF
:104248000B4620462946FDF70FF9FDF773FB306052
:10425800664B588980B2674B1C68001BFDF750FA03
:104268005BA3D3E90023FCF71BFF00220023FDF723
:1042780011FB002859D15D4B588980B2001BFDF70E
:104288003FFA53A3D3E90023FCF70AFF00225A4B55
:10429800FDF71EFB002859D1584B1B68052B55D834
:1042A800574B1B78002B51D0564A536C43F40043AC
:1042B800536450E00133494A13604C4A93889BB2D7
:1042C80051490868034403EBD3735B100B60D38830
:1042D8009BB24E490868034403EBD3735B100B6031
:1042E80013889BB24A490868034403EBD3735B10F5
:1042F8000B6053889BB247490868034403EBD373A8
:104308005B100B6053899BB23A490868034403EB7E
:10431800D3735B100B6013899BB23F4A11680B443F
:1043280003EBD3735B1013607047304B588980B22E
:10433800001BFDF7E5F926A3D3E90023FCF7B0FE3F
:104348000022364BFDF7A6FA0028A5D02D4A536C5B
:1043580023F400435364254B188980B22E4B1C6804
:10436800001BFDF7CDF91AA3D3E90023FCF798FE4B
:1043780000220023FDF78EFA002853D11B4B188921
:1043880080B2001BFDF7BCF911A3D3E90023FCF7A9
:1043980087FE0022184BFDF79BFA002853D1174BD4
:1043A8001B68052B4FD8164B1B78002B4BD01C4A8B
:1043B800536C43F4004353644AE000BFAFF30080FA
:1043C800AE47E17A14AEEF3F7B14AE47E17A843F03
:1043D8007B14AE47E17A943F00000240CC010020F4
:1043E800D0010020D34D621070000020BC000020D6
:1043F80017B9CE3C7800002000002E40680000204D
:10440800D4010020003401408800002084000020EE
:10441800800000207C0000207400002000002EC0D6
:10442800002C0140A24B188980B2001BFDF768F9E7
:104438009DA3D3E90023FCF733FE00229D4BFDF733
:1044480029FA0028ABD09C4A536C23F400435364E8
:104458009A498B6813F0200F0CBF012300238A6848
:1044680012F0400F0CBF01220022896811F0800F62
:104478000CBF012400249249886810F4806F0CBF97
:10448800012000208D6815F4006F0CBF4FF0010C5F
:104498004FF0000C896811F4805F0CBF4FF0010EDB
:1044A8004FF0000E02EB440203EB4203854DEB5C38
:1044B80085490B600B6802330B600C68834B83FBE8
:1044C8000462A2EBE47202EB4202A4EB42020A602D
:1044D8000CEB4E0200EB4202A85C7D4A10601068AB
:1044E80002301060106883FB0043A3EBE07303EB1A
:1044F8004303A0EB4303136008686D4B998889B2A6
:10450800DA8892B2734B1D68734B1C68734B521B4D
:10451800091BFFF74AFE724B1A6801321A60714B89
:104528001868A8B1704BA3FB02131B0B6F490968ED
:104538000131B3FBF1F401FB14334BB9B2FBF0F3D7
:1045480000FB13224AB910216948FEF7BEFB04E0BC
:10455800002210216648FEF7B2FB664C20685A4BD1
:1045680019680BAB00930CAB0DAAFFF7E7FD624B84
:104578001868574B196808AB009309AB0AAAFFF7EC
:10458800DDFD2368002B50DD5C4B18684E4B1C6822
:1045980005344E4B83FB0423A3EBE47303EB430185
:1045A80005AB009306AB07AAA4EB4101FFF7C6FDD4
:1045B8000D9B079A13440D930C9B069A13440C9376
:1045C8000B9B059A13440B934B4B1B68002B42DD46
:1045D8004B4B18683E4B1C6805343C4B83FB04234B
:1045E800A3EBE47303EB430102AB009303AB04AA10
:1045F800A4EB4101FFF7A2FD0A99049B19440A9113
:10460800099A039B1A440992089B02980344089349
:104618000D9840F2DE34A04233DCA4F2BC74A04210
:10462800B8BF204600F57A702DE0344B1868264B49
:104638001C680134254B83FB0423A3EBE47303EBD1
:10464800430105AB009306AB07AAA4EB4101404226
:10465800FFF774FDACE72A4B18681D4B1C68013442
:104668001A4B83FB0423A3EBE47303EB430102AB74
:10467800009303AB04AAA4EB41014042FFF75EFD9F
:10468800BAE740F2C6701F4C60630C9840F2DE3403
:10469800A04239DCA4F2BC74A042B8BF204600F5A1
:1046A8007A7033E0AFF300807B14AE47E17A943F31
:1046B800BC00002000002EC0002C0140000C01406E
:1046C80000100140E0480008F4010020ABAAAA2A23
:1046D800F00100208400002088000020C80100208C
:1046E800D0010020DC0100205917B7D1D8010020E3
:1046F80000080140EC010020E8010020E40100204E
:10470800E00100200034014040F2C670224CA06352
:104718000B9840F2DE34A04207DCA4F2BC74A0423D
:10472800B8BF204600F57A7001E040F2C6701A4C16
:10473800E06340F2DE30814207DCA0F2BC708142C7
:10474800B8BF014601F57A7101E040F2C67113481D
:10475800416340F2DE318A4207DCA1F2BC718A4231
:10476800B8BF0A4602F57A7201E040F2C6720B49F8
:104778008A6340F2DE32934207DCA2F2BC729342B3
:10478800B8BF134603F57A7301E040F2C673034AD3
:10479800D3630EB070BD00BF00340140002C01404F
:1047A800014B23F810107047F8010020F0B587B0CE
:1047B8001A4F642200213846FBF77AFD18490A8807
:1047C800B1F802C0888800B2CC8824B20D892DB215
:1047D8004E8936B28B891BB2C98909B205910493F7
:1047E80003960295019400900FFA8CF312B20D49CA
:1047F8003846FBF7CDFD0C4B1B6A6BB90A4CE369D5
:1048080023F00103E3613846FBF7E4FD2062A76269
:10481800E36943F00103E36107B0F0BD080200203B
:10482800F8010020E8480008000002407047FEE751
:10483800FEE7FEE7FEE770477047704708B5FEF7EA
:10484800FFFAFEF716F908BD002103E00B4B5B5891
:10485800435004310A480B4B42189A42F6D30A4A8D
:1048680002E0002342F8043B084B9A42F9D3FEF7D2
:1048780017FEFBF7F9FCFFF7DBF97047584900080A
:10488800000000208C0000208C0000206C0200201A
:10489800FEE70000F8B500BFF8BC08BC9E467047AC
:0C48A800F8B500BFF8BC08BC9E46704785
:1048B40002030405060708090A0B0C0D0E0F10105D
:1048C40000000000000000000102030400000000DA
:1048D40000000000010203040607080900000201A9
:1048E40004050300313A256920323A256920333A18
:1048F400256920343A256920353A256920363A2538
:104904006920373A256920383A25690D0A000000E4
:10491400232D302B20000000686C4C006566674531
:104924004647000030313233343536373839414266
:1049340043444546000000003031323334353637C5
:0C494400383961626364656600000000A1
:044950005102000808
:04495400290200082C
:10495800040000200000000000000000000000002B
:10496800000000000000000000000000000000003F
:10497800000000000000000000000000000000002F
:10498800000000000000000000000000000000001F
:10499800000000000000000000000000000000000F
:1049A80000000000000000000000000000000000FF
:1049B8000000000000A24A0464000000010000009A
:1049C80000002042D0070000D0070000D0070000F8
:0C49D800D0070000D0070000D00700004E
:040000050800485156
:00000001FF
